{
  "_format": "hh-sol-artifact-1",
  "contractName": "SudokuVerifier",
  "sourceName": "contracts/SudokuVerifier.sol",
  "abi": [
    {
      "inputs": [
        {
          "internalType": "bytes",
          "name": "",
          "type": "bytes"
        }
      ],
      "name": "verify",
      "outputs": [
        {
          "internalType": "bool",
          "name": "result",
          "type": "bool"
        }
      ],
      "stateMutability": "view",
      "type": "function"
    }
  ],
  "bytecode": "0x608060405234801561001057600080fd5b50613a2b806100206000396000f3fe608060405234801561001057600080fd5b506004361061002b5760003560e01c80638e760afe14610030575b600080fd5b61004361003e366004613900565b610057565b604051901515815260200160405180910390f35b6000806100626102e8565b60208101519091506000610076828461090e565b6040805160208101909152600081529091508351602085015161009a918391610cf3565b61012160405180610220016040528060008152602001600081526020016000815260200160008152602001600081526020016000815260200160008152602001600081526020016000815260200160008152602001600081526020016000815260200160008152602001600081526020016000815260200160008152602001600081525090565b60208501516101339083908390610d4b565b608083015182516040805191825260208084015181840152925190820152606090207f30644e72e131a029b85045b68181585d2833e84879b9709143e1f593f0000001810691830182905290825282526101af818460a001518560c001518660e0015187610100015187610dd09095949392919063ffffffff16565b6000806101bd858885610e4f565b6103808701829052602089015191935091506101dc9085908590610eda565b6103008501516103208601518551604080519182526020808501518184015293519082015291810151606083015251608082015260a0908190207f30644e72e131a029b85045b68181585d2833e84879b9709143e1f593f0000001810691850191909152845260208301518352600061025784838a89611029565b90506000610267858a848a6111b7565b9050600061027588876116e0565b90506102848282888b8e611898565b9a508a6102d85760405162461bcd60e51b815260206004820152600c60248201527f50726f6f66206661696c6564000000000000000000000000000000000000000060448201526064015b60405180910390fd5b5050505050505050505092915050565b6102f0613455565b6102f8613455565b6120006000820152605160208201527e6fab49b869ae62001deac878b2667bd31bf3e28e3a2d764aa49b8d9bbdd31060408201527f3062cb506d9a969cb702833453cd4c52654aa6a93775a2c5bf57d6844360800160608201527f1670ed58bfac610408e124db6a1cb6c8c8df74fa978188ca3b0b205aabd95dc960808201527f058a183e54895b14d7c194a79ba7c885c48f1a7995eb074da425a8beb3b69da760a0820151527f10829e617854e7a9f7b3ee1fbb97bb34f704610c212a3cbe240c859a90ee9175602060a083015101527f0a10e20f91f5d08127258fbbb975deb1698b433c8f4e32ca45060807e18aa34160c0820151527f16061a35edebe77b707a24c873d3a8ce2f254e945d8a08ba3c0ac1ff6f1c8bac602060c083015101527f0b4bab882604c5d200a1fdd3f77fa7c57535290c64fe12109196fc59077fd5e760e0820151527f05f9addef4fc33178aa18408be8c6ea1f4e49112705fa3335cee8a0ee0e94dea602060e083015101527f2e971237066bf15de9bd0df8f4fdc6ca534201c1a343f2d2381e46a71a662a35610100820151527f04af7bc4ff119a15a5f74c8918ab1a3849d11f6df13bb1654c424b63b950bc39602061010083015101527f2e971237066bf15de9bd0df8f4fdc6ca534201c1a343f2d2381e46a71a662a35610120820151527f04af7bc4ff119a15a5f74c8918ab1a3849d11f6df13bb1654c424b63b950bc39602061012083015101527f057b5d50e5455a0d86d64f2da10dd12dc768980b29d2c566a05fadeecf3cece6610140820151527f14f5e5d181e5e5a7c0b0f70067942d6b5ef672fc35a1a3d21172cc0b364364dc602061014083015101527f097a69f87678452619b807ab20271076589730de0bb6e4c7db096091ee3dcdab610160820151527f20e9cf42d6db34434122948146874c2f2ef312887a222f4974accfbffa185d6c602061016083015101527f1240417a9d2dca93e71b5782479acfc86c5b1e446d4e566c4510d44382b3edde610180820151527f1fe36ccd967bbc97b91f22d887b69a71cebb0e595adf2b7befb6a48d2eb5d3bc602061018083015101527f2e971237066bf15de9bd0df8f4fdc6ca534201c1a343f2d2381e46a71a662a356101a0820151527f04af7bc4ff119a15a5f74c8918ab1a3849d11f6df13bb1654c424b63b950bc3960206101a083015101527f10dd830f212da24816e2bdcac234aa47dd6c95e1464ad86c2a58871d23dd40aa6101c0820151527f06e41b25406874f5ca11221186c76d869ac7c1fc7c759ed72b457b8f6162ffed60206101c083015101527f2e971237066bf15de9bd0df8f4fdc6ca534201c1a343f2d2381e46a71a662a356101e0820151527f04af7bc4ff119a15a5f74c8918ab1a3849d11f6df13bb1654c424b63b950bc3960206101e083015101527f2ac189360b936f0364a77e4ebaff09f743d0a3a618b383cc3a837bd20f07cf53610200820151527f1fa876da6edf30473a46e2c0d60c63cccc11e131e654190d9135aefc77dc14d4602061020083015101527f0bfaa31ab300a7e9e8ee6814331e6cac5f44b0603488d1f8d0486f737d437ef6610220820151527f024c1480e69e61414af707595904f6d407a3c01407c15936ecf070ee80a5b8ee602061022083015101527e3837c73d343f6b5d4d3bc9f277a784deaf86f25ae925befdac65461e3d1ae7610240820151527f1986f53331a2de457eaff81a9bd9d3801bd3252fa0aef3f41bb0e15a6bd0cba2602061024083015101527f0f83c2c4be21c28004b6faefccf713036284a9332a423d80c465ecb70300613b610260820151527f032d3b33ccaaddffeaa1a5eb9af448fb6ec603cc3943d578611c62d8a1dd976d60206102608301510152600061028082015260006102a08201527f260e01b251f6f1c7e7ff4e580791dee8ea51d87a358e038b4efe30fac09383c16102c0820151527f0118c4d5b837bcc2bc89b5b398b5974e9f5944073b32078b7e231fec938883b060206102c083015101527f04fc6369f7110fe3d25156c1bb9a72859cf2a04641f99ba4ee413c80da6a5fe460406102c083015101527f22febda3c0c0632a56475b4214e5615e11e6dd3f96e6cea2854a87d4dacc5e5560606102c083015101528091505090565b6109166136d1565b6102808201517f30644e72e131a029b85045b68181585d2833e84879b9709143e1f593f0000001907f30644e72e131a029b85045b68181585d97816a916871ca8d3c208c16d87cfd479060043560240190849015610ac4576000866102a00151602061098291906139a1565b83019050606081013560cc90811b6040830135608890811b6020850135604490811b86350191909101929092019260e0850135811b60c0860135831b60a0870135851b608088013501010192610160860135821b610140870135841b610120880135831b610100890135010101926101e087013590921b6101c087013590921b6101a087013590911b610180870135010101610a6a8484604080518082019091526000808252602082015250604080518082019091527f30644e72e131a029b85045b68181585d2833e84879b9709143e1f593f0000001928390068152919006602082015290565b6103408b0152604080518082018252600080825260209182015281518083019092527f30644e72e131a029b85045b68181585d2833e84879b9709143e1f593f000000180850683528306908201526103608b015250505050505b602087028083019250508260208301350681515282823506602082510152826060830135066020820151528260408301350660208083015101528260a083013506604082015152826080830135066020604083015101528260e0830135066060820151528260c08301350660206060830151015282610120830135066080820151528261010083013506602060808301510152826101608301350660a0820151528261014083013506602060a08301510152826101a08301350660c0820151528261018083013506602060c08301510152826101e08301350660e082015152826101c083013506602060e08301510152826102208301350661010082015152826102008301350660206101008301510152836102408301350661012082015283610260830135066101408201528361028083013506610160820152836102a083013506610180820152836102c0830135066101a0820152836102e0830135066101c082015283610300830135066101e08201528361032083013506610200820152836103408301350661022082015283610360830135066102408201528361038083013506610260820152836103a083013506610280820152836103c0830135066102a0820152836103e0830135066102c082015283610400830135066102e08201528261044083013506610300820151528261042083013506602061030083015101528261048083013506610320820151528261046083013506602061032083015101525050505092915050565b60006040518360181c60208201538360101c60218201538360081c60228201538360238201538260181c60248201538260101c60258201538260081c6026820153826027820153600860209190910120909352505050565b8251604051818152600091907f30644e72e131a029b85045b68181585d2833e84879b9709143e1f593f000000190839060209081019060246004350190870261010001808284376040516020918201902085810660608b0181905260008290529097509350600192509050535060216000209081066080909501949094525050509052565b85516040805191825260208681015181840152955182820152848601516060830152935160808201528285015160a0820152915160c08301529283015160e082015291516101008301526101209091207f30644e72e131a029b85045b68181585d2833e84879b9709143e1f593f0000001810692909101919091529052565b600080600080600080600080610e65898b611ba1565b915091506000806000806000610e7f8f8f60400151611d53565b94509450945094509450610e9887878787878787611e64565b809b50819c50829e50839d5050505050898f610300018181525050505050505050506000610eca84868a86868f611f95565b9a92995091975050505050505050565b82516040518181527f30644e72e131a029b85045b68181585d2833e84879b9709143e1f593f0000001919060009081906102646020878102600435019190910191906101e0908390830137610200902085810660c08901819052600082905290935091506001905060205350602160002083900660e08601819052600260205350602160002083900661010086018190526003602053506021600020839006610120860181905260046020535060216000208390066101408601819052600560205350602160002083900661016086018190526006602053506021600020839006610180860181905260076020535060216000208390066101a0860181905260086020535060216000208390066101c08601819052600960205350602160009081208490066101e0870181905290600a6020535050602160002092830661020090950194909452509092525050565b6040805180820190915260008082526020820152600061104b83858888611ffd565b9050600061105a84868961226e565b905060006110688589612928565b90506000611076868a612aa6565b6101c08801516101e08901519192509061108f82612cd7565b61109881612cd7565b6000604051835181526020840151602082015285604082015260408160608360075afa9150875160408201526020880151606082015260408160808360065afa821691508251604082015260208301516060820152846080820152604080820160606040840160075afa8216915060408160808360065afa82169150865160408201526020870151606082015260408860808360065afa8216915050806111a75760405162461bcd60e51b815260206004820152603660248201527f636f6d707574655f6c696e656172697365645f6f70656e696e675f7465726d7360448201527f2067726f7570206f7065726174696f6e73206661696c0000000000000000000060648201526084016102cf565b50949a9950505050505050505050565b60408051808201909152600080825260208201526040805160a08101909152610300850151600091907f30644e72e131a029b85045b68181585d2833e84879b9709143e1f593f000000190839061120e90836139de565b60a087015190915061121f81612cd7565b805184526020810151602085015281604085015260408460608660075afa6102e08a015160c08901519196509091508061125883612cd7565b8251604087015260208301516060870152848483096080870152604080870160608160075afa965060408660808860065afa60e08a0151971696925061129d83612cd7565b8482830991508251604087015260208301516060870152848483096080870152604080870160608160075afa8716965060408660808860065afa6101008a015197169692506112eb83612cd7565b8481830991508251604087015260208301516060870152848483096080870152604080870160608160075afa8716965060408660808860065afa8716965089925061133583612cd7565b8951604087015260208a0151606087015260408660808860065afa60a08d015160c08e01518b51999092169894509061136d85612cd7565b8660018308915086828209935084516040890152602085015160608901528360808901526040808901606060408b0160075afa8916985060408860808a60065afa891698508d60e0015190508a6020015194506113c985612cd7565b86828209935084516040890152602085015160608901528360808901526040808901606060408b0160075afa8916985060408860808a60065afa891698508d610100015190508a60400151945061141f85612cd7565b86828209935084516040890152602085015160608901528360808901526040808901606060408b0160075afa8916985060408860808a60065afa891698508d610120015190508a60600151945061147585612cd7565b86828209935084516040890152602085015160608901528360808901526040808901606060408b0160075afa8916985060408860808a60065afa891698508d610140015193508c610200015194506114cc85612cd7565b84516040890152602085015160608901528360808901526040808901606060408b0160075afa8916985060408860808a60065afa891698508d610160015193508c6102200151945061151d85612cd7565b84516040890152602085015160608901528360808901526040808901606060408b0160075afa8916985060408860808a60065afa891698508d610180015193508c6102400151945061156e85612cd7565b84516040890152602085015160608901528360808901526040808901606060408b0160075afa8916985060408860808a60065afa891698508d6101a0015193508c610180015194506115bf85612cd7565b84516040890152602085015160608901528360808901526040808901606060408b0160075afa8916985060408860808a60065afa60408051808201909152600080825260208201529916988e6101c0015194508d6101a00151955061162386612cd7565b855160408a0152602086015160608a01528460808a01526040808a01606060408c0160075afa8a16995060408160808b60065afa8a169950896116ce5760405162461bcd60e51b815260206004820152603760248201527f636f6d707574655f62617463685f6f70656e696e675f636f6d6d69746d656e7460448201527f2067726f7570206f7065726174696f6e73206572726f7200000000000000000060648201526084016102cf565b9e9d5050505050505050505050505050565b60c08101516101208301516000917f30644e72e131a029b85045b68181585d2833e84879b9709143e1f593f0000001918391908380828409840892508560e001519150866101400151905083848284098408925085610100015191508661016001519050838482840984089250856101200151915086610180015190508384828409840892508561014001519150866101a0015190508384828409840892508561016001519150866101c0015190508384828409840892508561018001519150866101e001519050838482840984089250856101a0015191508661020001519050838482840984089250856101c0015191508661022001519050838482840984089250856101e0015191508661024001519050838482840984089250866103800151905083818503840892508560c001519150866102800151905060008482840990508660e001519250876102a0015191508485838509820890508661010001519250876102c0015191508485838509820890508661012001519250876102e00151915084858385098208905087610260015192508483820890508660a0015192508483820990508481850898975050505050505050565b60a083015160408051808201909152600080825260208201819052919082907f30644e72e131a029b85045b68181585d2833e84879b9709143e1f593f0000001906103208701516103008801516118ee81612cd7565b6118f782612cd7565b6040808b0151908901518582820990508588820990508c86039c506040518e51815260208f015160208201528351604082015260208401516060820152826080820152604080820160606040840160075afa975060408160808360065afa881697508451604082015260208501516060820152816080820152604080820160606040840160075afa8816975060408160808360065afa8816975060016040820152600260608201528d6080820152604080820160606040840160075afa8816975060408660808360065afa881697505050506119e6604051806040016040528060008152602001600081525090565b60405182518152602083015160208201528351604082015260208401516060820152876080820152604080820160606040840160075afa8716965060408260808360065afa871696505060007f30644e72e131a029b85045b68181585d97816a916871ca8d3c208c16d87cfd47905060208201518103602083015289610280015115611b16576103408b01516103608c0151611a8182612cd7565b611a8a81612cd7565b6040518251815260208301516020820152888b8c09604082015260406060820160608360075afa8a169950815181526020820151602082015260408160608360075afa8a169950875160a0820152602088015160c082015260408860806060840160065afa8a169950845160408201526020850151606082015260408560808360065afa8a1699505050505b86611b895760405162461bcd60e51b815260206004820152602b60248201527f706572666f726d5f70616972696e67204731206f7065726174696f6e7320707260448201527f65616d626c65206661696c00000000000000000000000000000000000000000060648201526084016102cf565b6116ce85611b95612d9e565b848d6102c00151612e6f565b6000806000846080015190506000846040015190506000602086602001516020611bcb91906139a1565b611bd591906139de565b6060880151909150600090806001807f30644e72e131a029b85045b68181585d2833e84879b9709143e1f593f0000001818160058609955081600786099450602460043501965086880197505b87871015611c855786358a81018701808701848c8a099850848c8909975060208a01358d81018a01868a8201888a860909975086898886840909985050858d8b099950858d8a099850858110868510168516945050505050604087019650611c22565b6020880197505b87871015611ccd57863582811082169150828b8208905082818801860994508281878901018509935050818987099550818986099450602087019650611c8c565b80611d405760405162461bcd60e51b815260206004820152602e60248201527f7075626c696320696e70757473206172652067726561746572207468616e206360448201527f697263756974206d6f64756c757300000000000000000000000000000000000060648201526084016102cf565b50919c909b509950505050505050505050565b6000806000806000807f30644e72e131a029b85045b68181585d2833e84879b9709143e1f593f000000190506000611d90888a6000015184612f63565b6102e08a018190529050817fffffffffffffffffffffffffffffffffffffffffffffffffffffffffffffffff8101820860808a015160608b015191925090819060009081808d88868103820894508887870995508889878b038308860994508887870995508889878b038308860994508887870995508889878b038308860994508f604001519550600089858a0990508960018b03830893508987880997508988890997508987890997508960018b038b848b0908989e50949c50939a509098509496505050505050509295509295909350565b6000806000806000807f30644e72e131a029b85045b68181585d2833e84879b9709143e1f593f00000019050600060019050604051925061020083016040528c83528a6020840152886040840152876060840152806080840152818351820990508060a0840152816020840151820990508060c0840152816040840151820990508060e084015281606084015182099050611efe81612f9f565b90508160e08401518209826060850151830991508060608501528260c085015183099050826040850151830991508060408501528260a08501518309905082602085015183099150806020850152826080850151830990508284518309818552915082908f0995508160208401518d0996508160408401518b0994508160608401518b099350505050975097509750979350505050565b600080611fa5878787878761305a565b90506000611fb38785613176565b90506000611fc18886613213565b905060007f30644e72e131a029b85045b68181585d2833e84879b9709143e1f593f0000001808084860886089c9b505050505050505050505050565b60408051808201909152600080825260208201526060830151604084015160808501516101208801516101a08901517f30644e72e131a029b85045b68181585d2833e84879b9709143e1f593f000000191600091829190848683088581878a8c090894508581878b850908935050505060008b6101400151905060008c6101c00151905084868308858682888c8a60058e09090886099450858682888c8609088509935050505060008b6101600151905060008c6101e00151905084868308858682888c8a60068e09090886099450858682888c8609088509935050505060008b610180015190508384828688888c8a60078e09090808840992505060008960000151905060008a60200151905060008b60a00151905060008e6102600151905060008c9050878588099650878b89878b868b09098a030995508784898688090994508783898a8885098a08089650878486098e5250505060808d01516102608d01516040805180820190915260008082526020820152919350915061218283612cd7565b61218b82612cd7565b6000604051845181526020850151602082015286604082015260408160608360075afa91508351604082015260208401516060820152856080820152604080820160606040840160075afa8216915060408360808360065afa82169150508061225c5760405162461bcd60e51b815260206004820152603d60248201527f636f6d707574655f6772616e645f70726f647563745f6f70656e696e675f736360448201527f616c61722067726f7570206f7065726174696f6e73206661696c75726500000060648201526084016102cf565b509d9c50505050505050505050505050565b6040805180820190915260008082526020820152610200840151610220850151835160208501516040805160a081019091526101808901516102e08a01518493927f30644e72e131a029b85045b68181585d2833e84879b9709143e1f593f000000192600092839190858060048409870382089250505060008d61012001519050809350848885099350848a8509935084868809965084868809965084868809965084828309858a820990508588820990508581860860a08f0151909550905061233781612cd7565b6000604051825181526020830151602082015286604082015260408660608360075afa915050806123aa5760405162461bcd60e51b815260206004820152601f60248201527f473120706f696e74206d756c7469706c69636174696f6e206661696c6564210060448201526064016102cf565b5050506101408d0151925082848882099350848a85099350848988098581860860c08f015190955090506123dd81612cd7565b60006040518251815260208301516020820152866040820152604080870160608360075afa91505060408560808760065afa168061245d5760405162461bcd60e51b815260206004820152601f60248201527f473120706f696e74206d756c7469706c69636174696f6e206661696c6564210060448201526064016102cf565b5050506101608d0151925082848882099350848a85096102c08f0151909450600091508581840991505060008e61014001519050858789099750858183099150858883099150858283089150858a83099150858286089450505060008d6102800151905060008e6101200151905085878909975085818703830891508583830991505060008e6102c001519050858183099150858883099150858a83099150858286089450505060008c60e00151905061251681612cd7565b60006040518251815260208301516020820152856040820152604080860160608360075afa91505060408460808660065afa16806125965760405162461bcd60e51b815260206004820152601f60248201527f473120706f696e74206d756c7469706c69636174696f6e206661696c6564210060448201526064016102cf565b5050506101608c01516101808d01516102408e01519093508390858983099450858b86099450858688890989099750858a84098682820990508689820990508681870895505060008e610100015190506125ef81612cd7565b60006040518251815260208301516020820152876040820152604080880160608360075afa91505060408660808860065afa168061266f5760405162461bcd60e51b815260206004820152601f60248201527f473120706f696e74206d756c7469706c69636174696f6e206661696c6564210060448201526064016102cf565b505050506101808d01516102408e0151909150818503858380099450858186089450858660028803850886099450858986099450858786099450858b8609945085816001089050858a82099050858282099050858882099050858186086101208f015190955090506126e081612cd7565b60006040518251815260208301516020820152866040820152604080870160608360075afa91505060408560808760065afa16806127605760405162461bcd60e51b815260206004820152601f60248201527f473120706f696e74206d756c7469706c69636174696f6e206661696c6564210060448201526064016102cf565b505050506101208c01516101408d0151848183099350848885099350848a85099350505060008c6101600151905060008d6102400151905084868809965084898309858282099050858882099050858186086101408f015190955090506127c681612cd7565b60006040518251815260208301516020820152866040820152604080870160608360075afa91505060408560808760065afa16806128465760405162461bcd60e51b815260206004820152601f60248201527f473120706f696e74206d756c7469706c69636174696f6e206661696c6564210060448201526064016102cf565b50505050612867604051806040016040528060008152602001600081525090565b6101e08b0151879350848a85099350848185089350848688096101608e015190985061289281612cd7565b60006040518251815260208301516020820152866040820152604080870160608360075afa91505060408460808760065afa16806129125760405162461bcd60e51b815260206004820152601f60248201527f473120706f696e74206d756c7469706c69636174696f6e206661696c6564210060448201526064016102cf565b5050509590995250929998505050505050505050565b6101208201516101408301516101608401516101808501516102e086015160208601518651600096959493929190877f30644e72e131a029b85045b68181585d2833e84879b9709143e1f593f000000180806004880982038808818260048a0983038a08828360048c0984038c08838460048e098503890884848509858587038208905085600287038608868183099150866003880387089050868183099150868983099150819750868a8a0998508685860991508685880383089150866002880386089050868183099150866003880386089050868183099150868983099150868289089750868a8a0998508684850991508684880383089150866002880385089050868183099150866003880385089050868183099150868983099150868289089750868a8a099850868384099150868388038308915086600288038408905086818309915086600388038408905086818309915050858882099050858188089650505050505080848409909a529a9950505050505050505050565b61028082015161012083015160009182917f30644e72e131a029b85045b68181585d2833e84879b9709143e1f593f000000191839182918291829182918291908880600483098a0383086102a08e01516101408f0151919750925090508880600483098a038308945088858708975088868709935088858609925088838508965088888909995088878a038b0860208d01516101608f0151919b506000935091508960028209925089838b038c089a5089828c099a505088828308915088868a03850893508860048709955088868a03850895508860068708955088848709955088868b08995088818b09995088858a03840892508860048609945088858a03840894508860068608945088838609945088858b08995088818b099950886003890995508860038709945088858608975088600489099350888486089450886003880993508860068509965088888a03830897508860518908975088858a038808945088605386086101608e015190955089818a09985089868a08985089818a096101808f0151909950905089600482096102e08f015190955090508985810382086102408f0151909550905089858008935089848608945089858608935089858508935089878b038508935089818509935089878608945089898a08985089898b038608945089848608945089858c088d51909b50905089818c098d5160208f0151919c509950975089965087955085945050505050099050828182099050828183099095525090949350505050565b805160208201516000917f30644e72e131a029b85045b68181585d97816a916871ca8d3c208c16d87cfd4791826003818085800985090883828309148115831517198483108585101616169350505081612d995760405162461bcd60e51b815260206004820152602d60248201527f426e3235343a20473120706f696e74206e6f74206f6e2063757276652c206f7260448201527f206973206d616c666f726d65640000000000000000000000000000000000000060648201526084016102cf565b505050565b612dc96040518060800160405280600081526020016000815260200160008152602001600081525090565b60405180608001604052807f198e9393920d483a7260bfb731fb5d25f1aa493335a9e71297e485b7aef312c281526020017f1800deef121f1e76426a00665e5c4479674322d4f75edadd46debd5cd992f6ed81526020017f090689d0585ff075ec9e99ad690c3395bc4b313370b38ef355acdadcd122975b81526020017f12c85ea5db8c6deb4aab71808dcb408fe3d1e7690c43d37b4ce6cc0166fa7daa815250905090565b6000612e7a85612cd7565b612e8383612cd7565b6000806040518751815260208801516020820152865160408201526020870151606082015260408701516080820152606087015160a0820152855160c0820152602086015160e08201528451610100820152602085015161012082015260408501516101408201526060850151610160820152602060006101808360085afa925050600051905081612f575760405162461bcd60e51b815260206004820152601560248201527f50616972696e6720636865636b206661696c656421000000000000000000000060448201526064016102cf565b15159695505050505050565b6000600184818581015b80821015612f935781871615612f84578583850993505b85838409925090800190612f6d565b50919695505050505050565b6000806000807f30644e72e131a029b85045b68181585d2833e84879b9709143e1f593f0000001905060405160208152602080820152602060408201528560608201526002820360808201528160a08201526020600060c08360055afa9250506000519250816130515760405162461bcd60e51b815260206004820152601b60248201527f706f7720707265636f6d70696c652063616c6c206661696c656421000000000060448201526064016102cf565b50909392505050565b6020840151606085015161026083015160808701516101208501516101408601516101608701516101808801516101a08901516101c08a01516101e08b015160009a8b9a909990987f30644e72e131a029b85045b68181585d2833e84879b9709143e1f593f00000019891979096919590949193909289838c09888801018a838d09898801018b838e098a8801018c8d8284098409925050508a898601820990508a8a820990508a8d82099050808b039d5050505050505050505060008a60000151905060008a905060008a905060008e90508588890986818a098781860988838609925088848a0389088981850993505088818a038d089b505087828c089a5087818709909f5250979e9d5050505050505050505050505050565b6102008101516101608201516101808301518451602086015160009493929190857f30644e72e131a029b85045b68181585d2833e84879b9709143e1f593f00000018087810381898009089150808682600488098303088160028383840909826009830983846007860384870308820890508381840992505050818583838609099250508083850993508083850990995298975050505050505050565b602082015182516101808301516102e08401516102c085015160009493859390927f30644e72e131a029b85045b68181585d2833e84879b9709143e1f593f0000001928592919082850385806004830984089450508486866003880387018860018a0389018a60038b0160018c010909090996508488870995508485878309860388089650848887096102208b01516101208c01516102808d01516101408e01516102c08f0151949a509196509450925090600080808980858a088808925089888b0385089150898283099150898284099250898a858609850991508986870990508960118b038b838508088a03915089858b888c09099050898182089050898b8b8c848608860809925089838d089b50898d8c099a508e610120015197508e6102a0015196508e610140015195508e6102c00151935060008f610280015190508a8b8a8d0387088c898b080993508a818c038a0892508a878c8c89098d030891508a8b8d8d8587098701098e089c508a8e8d099b508f610240015195508f610180015197508f610160015196508a60018c0389088b888d03820893508b8c8e8609820990508b87820990508b818f089d50508a8e8d099b508a8b8d89098c888c09098b038b818f089d50508a8e8d099b508f610140015198508f610160015197508f610180015196508a86888d03600101098b898b098c0393508b8c888f098583010990508b818f089d50508a8e8d099b508f610220015195508a868e099c5050505050505050505050508086600001818152505081935050505092915050565b60405180610320016040528060008152602001600081526020016000815260200160008152602001600081526020016134a1604051806040016040528060008152602001600081525090565b81526020016134c3604051806040016040528060008152602001600081525090565b81526020016134e5604051806040016040528060008152602001600081525090565b8152602001613507604051806040016040528060008152602001600081525090565b8152602001613529604051806040016040528060008152602001600081525090565b815260200161354b604051806040016040528060008152602001600081525090565b815260200161356d604051806040016040528060008152602001600081525090565b815260200161358f604051806040016040528060008152602001600081525090565b81526020016135b1604051806040016040528060008152602001600081525090565b81526020016135d3604051806040016040528060008152602001600081525090565b81526020016135f5604051806040016040528060008152602001600081525090565b8152602001613617604051806040016040528060008152602001600081525090565b8152602001613639604051806040016040528060008152602001600081525090565b815260200161365b604051806040016040528060008152602001600081525090565b815260200161367d604051806040016040528060008152602001600081525090565b8152602001600015158152602001600081526020016136bd6040518060800160405280600081526020016000815260200160008152602001600081525090565b815260200160008152602001600081525090565b604080516103e0810190915260006103a082018181526103c083019190915281908152602001613714604051806040016040528060008152602001600081525090565b8152602001613736604051806040016040528060008152602001600081525090565b8152602001613758604051806040016040528060008152602001600081525090565b815260200161377a604051806040016040528060008152602001600081525090565b815260200161379c604051806040016040528060008152602001600081525090565b81526020016137be604051806040016040528060008152602001600081525090565b81526020016137e0604051806040016040528060008152602001600081525090565b8152602001613802604051806040016040528060008152602001600081525090565b815260200160008152602001600081526020016000815260200160008152602001600081526020016000815260200160008152602001600081526020016000815260200160008152602001600081526020016000815260200160008152602001600081526020016000815260200161388d604051806040016040528060008152602001600081525090565b81526020016138af604051806040016040528060008152602001600081525090565b81526020016138d1604051806040016040528060008152602001600081525090565b81526020016138f3604051806040016040528060008152602001600081525090565b8152602001600081525090565b6000806020838503121561391357600080fd5b823567ffffffffffffffff8082111561392b57600080fd5b818501915085601f83011261393f57600080fd5b81358181111561394e57600080fd5b86602082850101111561396057600080fd5b60209290920196919550909350505050565b7f4e487b7100000000000000000000000000000000000000000000000000000000600052601160045260246000fd5b6000817fffffffffffffffffffffffffffffffffffffffffffffffffffffffffffffffff04831182151516156139d9576139d9613972565b500290565b6000828210156139f0576139f0613972565b50039056fea264697066735822122049a72036daf0c31fb7fe61e6c4fb0720d6182cde9e00b501777aa20af8c22ba664736f6c634300080a0033",
  "linkReferences": {},
  "deployedLinkReferences": {}
}