{
  "_format": "hh-sol-artifact-1",
  "contractName": "WordleVerifier",
  "sourceName": "contracts/WordleVerifier.sol",
  "abi": [
    {
      "inputs": [
        {
          "internalType": "bytes",
          "name": "",
          "type": "bytes"
        }
      ],
      "name": "verify",
      "outputs": [
        {
          "internalType": "bool",
          "name": "result",
          "type": "bool"
        }
      ],
      "stateMutability": "view",
      "type": "function"
    }
  ],
  "bytecode": "0x608060405234801561001057600080fd5b50613a2d806100206000396000f3fe608060405234801561001057600080fd5b506004361061002b5760003560e01c80638e760afe14610030575b600080fd5b61004361003e366004613902565b610057565b604051901515815260200160405180910390f35b6000806100626102e8565b602081015190915060006100768284610910565b6040805160208101909152600081529091508351602085015161009a918391610cf5565b61012160405180610220016040528060008152602001600081526020016000815260200160008152602001600081526020016000815260200160008152602001600081526020016000815260200160008152602001600081526020016000815260200160008152602001600081526020016000815260200160008152602001600081525090565b60208501516101339083908390610d4d565b608083015182516040805191825260208084015181840152925190820152606090207f30644e72e131a029b85045b68181585d2833e84879b9709143e1f593f0000001810691830182905290825282526101af818460a001518560c001518660e0015187610100015187610dd29095949392919063ffffffff16565b6000806101bd858885610e51565b6103808701829052602089015191935091506101dc9085908590610edc565b6103008501516103208601518551604080519182526020808501518184015293519082015291810151606083015251608082015260a0908190207f30644e72e131a029b85045b68181585d2833e84879b9709143e1f593f0000001810691850191909152845260208301518352600061025784838a8961102b565b90506000610267858a848a6111b9565b9050600061027588876116e2565b90506102848282888b8e61189a565b9a508a6102d85760405162461bcd60e51b815260206004820152600c60248201527f50726f6f66206661696c6564000000000000000000000000000000000000000060448201526064015b60405180910390fd5b5050505050505050505092915050565b6102f0613457565b6102f8613457565b6108006000820152600b60208201527f027a358499c5042bb4027fd7a5355d71b8c12c177494f0cad00a58f9769a2ee260408201527f305e41e912d579f5b3193badcab128321c8ee1cb70aa396331b979553d82000160608201527f0fa9bb21bc73d07b3bb6dcd7fddabf54fd7efed80adc442020a3a65d579d71ae60808201527f261c7cc12405aa99c0a3231628467cb1cba7314f34e7b1cae20ac073f5cf00c160a0820151527f05b691a1904ace89a36260ef2de8d3efa9ccd6f8bba62450e6ea3183ae04e38d602060a083015101527f22098be6321d8404e97cd5cc26cd7c753e4dca02d99f0a6b666b1de2a490692160c0820151527f1664af19cc5ac3f32c76623388351e1d1fb127f597c0f0bbe49e8a2849ad6b98602060c083015101527f2a2ff4497c053492c663ef8ce3ae1aa0eeea8cede6c7c2456e55b09f50649dc960e0820151527f18d93337439ac3b3589684a0a43831cf2a597c400c9d57e6b53042365db38013602060e083015101527f192ee066f31dc7e904fc0540ef423beef52f9bfa024a14c5eb93ffe6e2da3367610100820151527f066ea8a961b4be3262315b46c3e1ebff4150effb22d89012614bb78dec39ff68602061010083015101527f099d8b96af543c9f29481d0b6dcee5d5dd6e86813a08b457d18cd0ed6cdb0d02610120820151527f155b45b94782cbfa8064c23d4af598990d267807e92a50780fe6b18a3940b87f602061012083015101527f02cb38506dede167e73688f971f6a89c076abd88fc205ad3c92ac790e55ea8c3610140820151527f2281119c945f8e58945a375662b63b93a21ce38bd1455da8777dfc10d5fd7764602061014083015101527f02df56eddcbaaed0663c7d642d80851bd4c45fd5d420249f0d14496a6fb41818610160820151527f065282998904abb09c5280bb2d662da8e727928efbf38b8060de62c5a162e588602061016083015101527f1f1c5a06894d668daada52ee61e565eff44d53cc4d874529c7e0514ee3265b00610180820151527f2f4398a3b32948f97cca816500129ff9baa5afc57f13d21df5bca0de1db89753602061018083015101527f12138b2c3bb64d317bf64f10cc478fcf5fe1f54edd75c06105b858926fd282ee6101a0820151527f26c8a37156c5ec26a23542873c434a53e19b0e6871ff469297aebf7f2ff4207660206101a083015101527f123d60ec301b8c373cff3c7e185148e2ed445973184e5cb2c620701bb321da286101c0820151527f1e1772f4eb940f693ef21f19af385dd88beb7e1f7082c6dc6ba7fdf8bbcf34d060206101c083015101527f1e0744e5b0a82f595892c353ee228e4dd4b660e1e9a8fdcb209bd48dff68675e6101e0820151527f0526cc25b500ee6440dfca3b2d823a1636c094e0673d91b1fb730cf9d8c88b9f60206101e083015101527f2ef95581d01e0eeb7e87aed13f5739792cd63653bae31a24aaf630277504d55b610200820151527f1b087bb81efb88b517bb9612630b3651f3399051b4fa4d9860e6edd5e4b2dfdd602061020083015101527f1653494c26032fe76f143698a23ec40c3db792bbfe22412bae40c688e996bf3a610220820151527f285c13a34ab40847e36465e055bb5e86ee9c5acc5ed288ee6f4571c86a3cebe8602061022083015101527f186ca64dceb577884a1c2629104caca10fd0c5942a9182cec449a434cdb19b95610240820151527f25381b60ef9ee05b8215ea235ca33c15c9f63aead1cef384b9af9e60792c4ed8602061024083015101527f1437fff29b33b699c446a659402c0767700c67df99fcca35e7337800913f53c9610260820151527f22bab2565c97eade65344a42e3ff4c6c3e196f0c9b260b9de09f775fa3e2ba9460206102608301510152600061028082015260006102a08201527f260e01b251f6f1c7e7ff4e580791dee8ea51d87a358e038b4efe30fac09383c16102c0820151527f0118c4d5b837bcc2bc89b5b398b5974e9f5944073b32078b7e231fec938883b060206102c083015101527f04fc6369f7110fe3d25156c1bb9a72859cf2a04641f99ba4ee413c80da6a5fe460406102c083015101527f22febda3c0c0632a56475b4214e5615e11e6dd3f96e6cea2854a87d4dacc5e5560606102c083015101528091505090565b6109186136d3565b6102808201517f30644e72e131a029b85045b68181585d2833e84879b9709143e1f593f0000001907f30644e72e131a029b85045b68181585d97816a916871ca8d3c208c16d87cfd479060043560240190849015610ac6576000866102a00151602061098491906139a3565b83019050606081013560cc90811b6040830135608890811b6020850135604490811b86350191909101929092019260e0850135811b60c0860135831b60a0870135851b608088013501010192610160860135821b610140870135841b610120880135831b610100890135010101926101e087013590921b6101c087013590921b6101a087013590911b610180870135010101610a6c8484604080518082019091526000808252602082015250604080518082019091527f30644e72e131a029b85045b68181585d2833e84879b9709143e1f593f0000001928390068152919006602082015290565b6103408b0152604080518082018252600080825260209182015281518083019092527f30644e72e131a029b85045b68181585d2833e84879b9709143e1f593f000000180850683528306908201526103608b015250505050505b602087028083019250508260208301350681515282823506602082510152826060830135066020820151528260408301350660208083015101528260a083013506604082015152826080830135066020604083015101528260e0830135066060820151528260c08301350660206060830151015282610120830135066080820151528261010083013506602060808301510152826101608301350660a0820151528261014083013506602060a08301510152826101a08301350660c0820151528261018083013506602060c08301510152826101e08301350660e082015152826101c083013506602060e08301510152826102208301350661010082015152826102008301350660206101008301510152836102408301350661012082015283610260830135066101408201528361028083013506610160820152836102a083013506610180820152836102c0830135066101a0820152836102e0830135066101c082015283610300830135066101e08201528361032083013506610200820152836103408301350661022082015283610360830135066102408201528361038083013506610260820152836103a083013506610280820152836103c0830135066102a0820152836103e0830135066102c082015283610400830135066102e08201528261044083013506610300820151528261042083013506602061030083015101528261048083013506610320820151528261046083013506602061032083015101525050505092915050565b60006040518360181c60208201538360101c60218201538360081c60228201538360238201538260181c60248201538260101c60258201538260081c6026820153826027820153600860209190910120909352505050565b8251604051818152600091907f30644e72e131a029b85045b68181585d2833e84879b9709143e1f593f000000190839060209081019060246004350190870261010001808284376040516020918201902085810660608b0181905260008290529097509350600192509050535060216000209081066080909501949094525050509052565b85516040805191825260208681015181840152955182820152848601516060830152935160808201528285015160a0820152915160c08301529283015160e082015291516101008301526101209091207f30644e72e131a029b85045b68181585d2833e84879b9709143e1f593f0000001810692909101919091529052565b600080600080600080600080610e67898b611ba3565b915091506000806000806000610e818f8f60400151611d55565b94509450945094509450610e9a87878787878787611e66565b809b50819c50829e50839d5050505050898f610300018181525050505050505050506000610ecc84868a86868f611f97565b9a92995091975050505050505050565b82516040518181527f30644e72e131a029b85045b68181585d2833e84879b9709143e1f593f0000001919060009081906102646020878102600435019190910191906101e0908390830137610200902085810660c08901819052600082905290935091506001905060205350602160002083900660e08601819052600260205350602160002083900661010086018190526003602053506021600020839006610120860181905260046020535060216000208390066101408601819052600560205350602160002083900661016086018190526006602053506021600020839006610180860181905260076020535060216000208390066101a0860181905260086020535060216000208390066101c08601819052600960205350602160009081208490066101e0870181905290600a6020535050602160002092830661020090950194909452509092525050565b6040805180820190915260008082526020820152600061104d83858888611fff565b9050600061105c848689612270565b9050600061106a858961292a565b90506000611078868a612aa8565b6101c08801516101e08901519192509061109182612cd9565b61109a81612cd9565b6000604051835181526020840151602082015285604082015260408160608360075afa9150875160408201526020880151606082015260408160808360065afa821691508251604082015260208301516060820152846080820152604080820160606040840160075afa8216915060408160808360065afa82169150865160408201526020870151606082015260408860808360065afa8216915050806111a95760405162461bcd60e51b815260206004820152603660248201527f636f6d707574655f6c696e656172697365645f6f70656e696e675f7465726d7360448201527f2067726f7570206f7065726174696f6e73206661696c0000000000000000000060648201526084016102cf565b50949a9950505050505050505050565b60408051808201909152600080825260208201526040805160a08101909152610300850151600091907f30644e72e131a029b85045b68181585d2833e84879b9709143e1f593f000000190839061121090836139e0565b60a087015190915061122181612cd9565b805184526020810151602085015281604085015260408460608660075afa6102e08a015160c08901519196509091508061125a83612cd9565b8251604087015260208301516060870152848483096080870152604080870160608160075afa965060408660808860065afa60e08a0151971696925061129f83612cd9565b8482830991508251604087015260208301516060870152848483096080870152604080870160608160075afa8716965060408660808860065afa6101008a015197169692506112ed83612cd9565b8481830991508251604087015260208301516060870152848483096080870152604080870160608160075afa8716965060408660808860065afa8716965089925061133783612cd9565b8951604087015260208a0151606087015260408660808860065afa60a08d015160c08e01518b51999092169894509061136f85612cd9565b8660018308915086828209935084516040890152602085015160608901528360808901526040808901606060408b0160075afa8916985060408860808a60065afa891698508d60e0015190508a6020015194506113cb85612cd9565b86828209935084516040890152602085015160608901528360808901526040808901606060408b0160075afa8916985060408860808a60065afa891698508d610100015190508a60400151945061142185612cd9565b86828209935084516040890152602085015160608901528360808901526040808901606060408b0160075afa8916985060408860808a60065afa891698508d610120015190508a60600151945061147785612cd9565b86828209935084516040890152602085015160608901528360808901526040808901606060408b0160075afa8916985060408860808a60065afa891698508d610140015193508c610200015194506114ce85612cd9565b84516040890152602085015160608901528360808901526040808901606060408b0160075afa8916985060408860808a60065afa891698508d610160015193508c6102200151945061151f85612cd9565b84516040890152602085015160608901528360808901526040808901606060408b0160075afa8916985060408860808a60065afa891698508d610180015193508c6102400151945061157085612cd9565b84516040890152602085015160608901528360808901526040808901606060408b0160075afa8916985060408860808a60065afa891698508d6101a0015193508c610180015194506115c185612cd9565b84516040890152602085015160608901528360808901526040808901606060408b0160075afa8916985060408860808a60065afa60408051808201909152600080825260208201529916988e6101c0015194508d6101a00151955061162586612cd9565b855160408a0152602086015160608a01528460808a01526040808a01606060408c0160075afa8a16995060408160808b60065afa8a169950896116d05760405162461bcd60e51b815260206004820152603760248201527f636f6d707574655f62617463685f6f70656e696e675f636f6d6d69746d656e7460448201527f2067726f7570206f7065726174696f6e73206572726f7200000000000000000060648201526084016102cf565b9e9d5050505050505050505050505050565b60c08101516101208301516000917f30644e72e131a029b85045b68181585d2833e84879b9709143e1f593f0000001918391908380828409840892508560e001519150866101400151905083848284098408925085610100015191508661016001519050838482840984089250856101200151915086610180015190508384828409840892508561014001519150866101a0015190508384828409840892508561016001519150866101c0015190508384828409840892508561018001519150866101e001519050838482840984089250856101a0015191508661020001519050838482840984089250856101c0015191508661022001519050838482840984089250856101e0015191508661024001519050838482840984089250866103800151905083818503840892508560c001519150866102800151905060008482840990508660e001519250876102a0015191508485838509820890508661010001519250876102c0015191508485838509820890508661012001519250876102e00151915084858385098208905087610260015192508483820890508660a0015192508483820990508481850898975050505050505050565b60a083015160408051808201909152600080825260208201819052919082907f30644e72e131a029b85045b68181585d2833e84879b9709143e1f593f0000001906103208701516103008801516118f081612cd9565b6118f982612cd9565b6040808b0151908901518582820990508588820990508c86039c506040518e51815260208f015160208201528351604082015260208401516060820152826080820152604080820160606040840160075afa975060408160808360065afa881697508451604082015260208501516060820152816080820152604080820160606040840160075afa8816975060408160808360065afa8816975060016040820152600260608201528d6080820152604080820160606040840160075afa8816975060408660808360065afa881697505050506119e8604051806040016040528060008152602001600081525090565b60405182518152602083015160208201528351604082015260208401516060820152876080820152604080820160606040840160075afa8716965060408260808360065afa871696505060007f30644e72e131a029b85045b68181585d97816a916871ca8d3c208c16d87cfd47905060208201518103602083015289610280015115611b18576103408b01516103608c0151611a8382612cd9565b611a8c81612cd9565b6040518251815260208301516020820152888b8c09604082015260406060820160608360075afa8a169950815181526020820151602082015260408160608360075afa8a169950875160a0820152602088015160c082015260408860806060840160065afa8a169950845160408201526020850151606082015260408560808360065afa8a1699505050505b86611b8b5760405162461bcd60e51b815260206004820152602b60248201527f706572666f726d5f70616972696e67204731206f7065726174696f6e7320707260448201527f65616d626c65206661696c00000000000000000000000000000000000000000060648201526084016102cf565b6116d085611b97612da0565b848d6102c00151612e71565b6000806000846080015190506000846040015190506000602086602001516020611bcd91906139a3565b611bd791906139e0565b6060880151909150600090806001807f30644e72e131a029b85045b68181585d2833e84879b9709143e1f593f0000001818160058609955081600786099450602460043501965086880197505b87871015611c875786358a81018701808701848c8a099850848c8909975060208a01358d81018a01868a8201888a860909975086898886840909985050858d8b099950858d8a099850858110868510168516945050505050604087019650611c24565b6020880197505b87871015611ccf57863582811082169150828b8208905082818801860994508281878901018509935050818987099550818986099450602087019650611c8e565b80611d425760405162461bcd60e51b815260206004820152602e60248201527f7075626c696320696e70757473206172652067726561746572207468616e206360448201527f697263756974206d6f64756c757300000000000000000000000000000000000060648201526084016102cf565b50919c909b509950505050505050505050565b6000806000806000807f30644e72e131a029b85045b68181585d2833e84879b9709143e1f593f000000190506000611d92888a6000015184612f65565b6102e08a018190529050817fffffffffffffffffffffffffffffffffffffffffffffffffffffffffffffffff8101820860808a015160608b015191925090819060009081808d88868103820894508887870995508889878b038308860994508887870995508889878b038308860994508887870995508889878b038308860994508f604001519550600089858a0990508960018b03830893508987880997508988890997508987890997508960018b038b848b0908989e50949c50939a509098509496505050505050509295509295909350565b6000806000806000807f30644e72e131a029b85045b68181585d2833e84879b9709143e1f593f00000019050600060019050604051925061020083016040528c83528a6020840152886040840152876060840152806080840152818351820990508060a0840152816020840151820990508060c0840152816040840151820990508060e084015281606084015182099050611f0081612fa1565b90508160e08401518209826060850151830991508060608501528260c085015183099050826040850151830991508060408501528260a08501518309905082602085015183099150806020850152826080850151830990508284518309818552915082908f0995508160208401518d0996508160408401518b0994508160608401518b099350505050975097509750979350505050565b600080611fa7878787878761305c565b90506000611fb58785613178565b90506000611fc38886613215565b905060007f30644e72e131a029b85045b68181585d2833e84879b9709143e1f593f0000001808084860886089c9b505050505050505050505050565b60408051808201909152600080825260208201526060830151604084015160808501516101208801516101a08901517f30644e72e131a029b85045b68181585d2833e84879b9709143e1f593f000000191600091829190848683088581878a8c090894508581878b850908935050505060008b6101400151905060008c6101c00151905084868308858682888c8a60058e09090886099450858682888c8609088509935050505060008b6101600151905060008c6101e00151905084868308858682888c8a60068e09090886099450858682888c8609088509935050505060008b610180015190508384828688888c8a60078e09090808840992505060008960000151905060008a60200151905060008b60a00151905060008e6102600151905060008c9050878588099650878b89878b868b09098a030995508784898688090994508783898a8885098a08089650878486098e5250505060808d01516102608d01516040805180820190915260008082526020820152919350915061218483612cd9565b61218d82612cd9565b6000604051845181526020850151602082015286604082015260408160608360075afa91508351604082015260208401516060820152856080820152604080820160606040840160075afa8216915060408360808360065afa82169150508061225e5760405162461bcd60e51b815260206004820152603d60248201527f636f6d707574655f6772616e645f70726f647563745f6f70656e696e675f736360448201527f616c61722067726f7570206f7065726174696f6e73206661696c75726500000060648201526084016102cf565b509d9c50505050505050505050505050565b6040805180820190915260008082526020820152610200840151610220850151835160208501516040805160a081019091526101808901516102e08a01518493927f30644e72e131a029b85045b68181585d2833e84879b9709143e1f593f000000192600092839190858060048409870382089250505060008d61012001519050809350848885099350848a8509935084868809965084868809965084868809965084828309858a820990508588820990508581860860a08f0151909550905061233981612cd9565b6000604051825181526020830151602082015286604082015260408660608360075afa915050806123ac5760405162461bcd60e51b815260206004820152601f60248201527f473120706f696e74206d756c7469706c69636174696f6e206661696c6564210060448201526064016102cf565b5050506101408d0151925082848882099350848a85099350848988098581860860c08f015190955090506123df81612cd9565b60006040518251815260208301516020820152866040820152604080870160608360075afa91505060408560808760065afa168061245f5760405162461bcd60e51b815260206004820152601f60248201527f473120706f696e74206d756c7469706c69636174696f6e206661696c6564210060448201526064016102cf565b5050506101608d0151925082848882099350848a85096102c08f0151909450600091508581840991505060008e61014001519050858789099750858183099150858883099150858283089150858a83099150858286089450505060008d6102800151905060008e6101200151905085878909975085818703830891508583830991505060008e6102c001519050858183099150858883099150858a83099150858286089450505060008c60e00151905061251881612cd9565b60006040518251815260208301516020820152856040820152604080860160608360075afa91505060408460808660065afa16806125985760405162461bcd60e51b815260206004820152601f60248201527f473120706f696e74206d756c7469706c69636174696f6e206661696c6564210060448201526064016102cf565b5050506101608c01516101808d01516102408e01519093508390858983099450858b86099450858688890989099750858a84098682820990508689820990508681870895505060008e610100015190506125f181612cd9565b60006040518251815260208301516020820152876040820152604080880160608360075afa91505060408660808860065afa16806126715760405162461bcd60e51b815260206004820152601f60248201527f473120706f696e74206d756c7469706c69636174696f6e206661696c6564210060448201526064016102cf565b505050506101808d01516102408e0151909150818503858380099450858186089450858660028803850886099450858986099450858786099450858b8609945085816001089050858a82099050858282099050858882099050858186086101208f015190955090506126e281612cd9565b60006040518251815260208301516020820152866040820152604080870160608360075afa91505060408560808760065afa16806127625760405162461bcd60e51b815260206004820152601f60248201527f473120706f696e74206d756c7469706c69636174696f6e206661696c6564210060448201526064016102cf565b505050506101208c01516101408d0151848183099350848885099350848a85099350505060008c6101600151905060008d6102400151905084868809965084898309858282099050858882099050858186086101408f015190955090506127c881612cd9565b60006040518251815260208301516020820152866040820152604080870160608360075afa91505060408560808760065afa16806128485760405162461bcd60e51b815260206004820152601f60248201527f473120706f696e74206d756c7469706c69636174696f6e206661696c6564210060448201526064016102cf565b50505050612869604051806040016040528060008152602001600081525090565b6101e08b0151879350848a85099350848185089350848688096101608e015190985061289481612cd9565b60006040518251815260208301516020820152866040820152604080870160608360075afa91505060408460808760065afa16806129145760405162461bcd60e51b815260206004820152601f60248201527f473120706f696e74206d756c7469706c69636174696f6e206661696c6564210060448201526064016102cf565b5050509590995250929998505050505050505050565b6101208201516101408301516101608401516101808501516102e086015160208601518651600096959493929190877f30644e72e131a029b85045b68181585d2833e84879b9709143e1f593f000000180806004880982038808818260048a0983038a08828360048c0984038c08838460048e098503890884848509858587038208905085600287038608868183099150866003880387089050868183099150868983099150819750868a8a0998508685860991508685880383089150866002880386089050868183099150866003880386089050868183099150868983099150868289089750868a8a0998508684850991508684880383089150866002880385089050868183099150866003880385089050868183099150868983099150868289089750868a8a099850868384099150868388038308915086600288038408905086818309915086600388038408905086818309915050858882099050858188089650505050505080848409909a529a9950505050505050505050565b61028082015161012083015160009182917f30644e72e131a029b85045b68181585d2833e84879b9709143e1f593f000000191839182918291829182918291908880600483098a0383086102a08e01516101408f0151919750925090508880600483098a038308945088858708975088868709935088858609925088838508965088888909995088878a038b0860208d01516101608f0151919b506000935091508960028209925089838b038c089a5089828c099a505088828308915088868a03850893508860048709955088868a03850895508860068708955088848709955088868b08995088818b09995088858a03840892508860048609945088858a03840894508860068608945088838609945088858b08995088818b099950886003890995508860038709945088858608975088600489099350888486089450886003880993508860068509965088888a03830897508860518908975088858a038808945088605386086101608e015190955089818a09985089868a08985089818a096101808f0151909950905089600482096102e08f015190955090508985810382086102408f0151909550905089858008935089848608945089858608935089858508935089878b038508935089818509935089878608945089898a08985089898b038608945089848608945089858c088d51909b50905089818c098d5160208f0151919c509950975089965087955085945050505050099050828182099050828183099095525090949350505050565b805160208201516000917f30644e72e131a029b85045b68181585d97816a916871ca8d3c208c16d87cfd4791826003818085800985090883828309148115831517198483108585101616169350505081612d9b5760405162461bcd60e51b815260206004820152602d60248201527f426e3235343a20473120706f696e74206e6f74206f6e2063757276652c206f7260448201527f206973206d616c666f726d65640000000000000000000000000000000000000060648201526084016102cf565b505050565b612dcb6040518060800160405280600081526020016000815260200160008152602001600081525090565b60405180608001604052807f198e9393920d483a7260bfb731fb5d25f1aa493335a9e71297e485b7aef312c281526020017f1800deef121f1e76426a00665e5c4479674322d4f75edadd46debd5cd992f6ed81526020017f090689d0585ff075ec9e99ad690c3395bc4b313370b38ef355acdadcd122975b81526020017f12c85ea5db8c6deb4aab71808dcb408fe3d1e7690c43d37b4ce6cc0166fa7daa815250905090565b6000612e7c85612cd9565b612e8583612cd9565b6000806040518751815260208801516020820152865160408201526020870151606082015260408701516080820152606087015160a0820152855160c0820152602086015160e08201528451610100820152602085015161012082015260408501516101408201526060850151610160820152602060006101808360085afa925050600051905081612f595760405162461bcd60e51b815260206004820152601560248201527f50616972696e6720636865636b206661696c656421000000000000000000000060448201526064016102cf565b15159695505050505050565b6000600184818581015b80821015612f955781871615612f86578583850993505b85838409925090800190612f6f565b50919695505050505050565b6000806000807f30644e72e131a029b85045b68181585d2833e84879b9709143e1f593f0000001905060405160208152602080820152602060408201528560608201526002820360808201528160a08201526020600060c08360055afa9250506000519250816130535760405162461bcd60e51b815260206004820152601b60248201527f706f7720707265636f6d70696c652063616c6c206661696c656421000000000060448201526064016102cf565b50909392505050565b6020840151606085015161026083015160808701516101208501516101408601516101608701516101808801516101a08901516101c08a01516101e08b015160009a8b9a909990987f30644e72e131a029b85045b68181585d2833e84879b9709143e1f593f00000019891979096919590949193909289838c09888801018a838d09898801018b838e098a8801018c8d8284098409925050508a898601820990508a8a820990508a8d82099050808b039d5050505050505050505060008a60000151905060008a905060008a905060008e90508588890986818a098781860988838609925088848a0389088981850993505088818a038d089b505087828c089a5087818709909f5250979e9d5050505050505050505050505050565b6102008101516101608201516101808301518451602086015160009493929190857f30644e72e131a029b85045b68181585d2833e84879b9709143e1f593f00000018087810381898009089150808682600488098303088160028383840909826009830983846007860384870308820890508381840992505050818583838609099250508083850993508083850990995298975050505050505050565b602082015182516101808301516102e08401516102c085015160009493859390927f30644e72e131a029b85045b68181585d2833e84879b9709143e1f593f0000001928592919082850385806004830984089450508486866003880387018860018a0389018a60038b0160018c010909090996508488870995508485878309860388089650848887096102208b01516101208c01516102808d01516101408e01516102c08f0151949a509196509450925090600080808980858a088808925089888b0385089150898283099150898284099250898a858609850991508986870990508960118b038b838508088a03915089858b888c09099050898182089050898b8b8c848608860809925089838d089b50898d8c099a508e610120015197508e6102a0015196508e610140015195508e6102c00151935060008f610280015190508a8b8a8d0387088c898b080993508a818c038a0892508a878c8c89098d030891508a8b8d8d8587098701098e089c508a8e8d099b508f610240015195508f610180015197508f610160015196508a60018c0389088b888d03820893508b8c8e8609820990508b87820990508b818f089d50508a8e8d099b508a8b8d89098c888c09098b038b818f089d50508a8e8d099b508f610140015198508f610160015197508f610180015196508a86888d03600101098b898b098c0393508b8c888f098583010990508b818f089d50508a8e8d099b508f610220015195508a868e099c5050505050505050505050508086600001818152505081935050505092915050565b60405180610320016040528060008152602001600081526020016000815260200160008152602001600081526020016134a3604051806040016040528060008152602001600081525090565b81526020016134c5604051806040016040528060008152602001600081525090565b81526020016134e7604051806040016040528060008152602001600081525090565b8152602001613509604051806040016040528060008152602001600081525090565b815260200161352b604051806040016040528060008152602001600081525090565b815260200161354d604051806040016040528060008152602001600081525090565b815260200161356f604051806040016040528060008152602001600081525090565b8152602001613591604051806040016040528060008152602001600081525090565b81526020016135b3604051806040016040528060008152602001600081525090565b81526020016135d5604051806040016040528060008152602001600081525090565b81526020016135f7604051806040016040528060008152602001600081525090565b8152602001613619604051806040016040528060008152602001600081525090565b815260200161363b604051806040016040528060008152602001600081525090565b815260200161365d604051806040016040528060008152602001600081525090565b815260200161367f604051806040016040528060008152602001600081525090565b8152602001600015158152602001600081526020016136bf6040518060800160405280600081526020016000815260200160008152602001600081525090565b815260200160008152602001600081525090565b604080516103e0810190915260006103a082018181526103c083019190915281908152602001613716604051806040016040528060008152602001600081525090565b8152602001613738604051806040016040528060008152602001600081525090565b815260200161375a604051806040016040528060008152602001600081525090565b815260200161377c604051806040016040528060008152602001600081525090565b815260200161379e604051806040016040528060008152602001600081525090565b81526020016137c0604051806040016040528060008152602001600081525090565b81526020016137e2604051806040016040528060008152602001600081525090565b8152602001613804604051806040016040528060008152602001600081525090565b815260200160008152602001600081526020016000815260200160008152602001600081526020016000815260200160008152602001600081526020016000815260200160008152602001600081526020016000815260200160008152602001600081526020016000815260200161388f604051806040016040528060008152602001600081525090565b81526020016138b1604051806040016040528060008152602001600081525090565b81526020016138d3604051806040016040528060008152602001600081525090565b81526020016138f5604051806040016040528060008152602001600081525090565b8152602001600081525090565b6000806020838503121561391557600080fd5b823567ffffffffffffffff8082111561392d57600080fd5b818501915085601f83011261394157600080fd5b81358181111561395057600080fd5b86602082850101111561396257600080fd5b60209290920196919550909350505050565b7f4e487b7100000000000000000000000000000000000000000000000000000000600052601160045260246000fd5b6000817fffffffffffffffffffffffffffffffffffffffffffffffffffffffffffffffff04831182151516156139db576139db613974565b500290565b6000828210156139f2576139f2613974565b50039056fea2646970667358221220e5ab16fa77a0a8e28e3e668caad4c65560ff8c2a3858446096b4a572b7f4791664736f6c634300080a0033",
  "linkReferences": {},
  "deployedLinkReferences": {}
}