{
  "_format": "hh-sol-artifact-1",
  "contractName": "ZK_NFT",
  "sourceName": "contracts/ZK_NFT.sol",
  "abi": [
    {
      "inputs": [
        {
          "internalType": "address",
          "name": "_sv",
          "type": "address"
        }
      ],
      "stateMutability": "nonpayable",
      "type": "constructor"
    },
    {
      "anonymous": false,
      "inputs": [
        {
          "indexed": true,
          "internalType": "address",
          "name": "owner",
          "type": "address"
        },
        {
          "indexed": true,
          "internalType": "address",
          "name": "approved",
          "type": "address"
        },
        {
          "indexed": true,
          "internalType": "uint256",
          "name": "tokenId",
          "type": "uint256"
        }
      ],
      "name": "Approval",
      "type": "event"
    },
    {
      "anonymous": false,
      "inputs": [
        {
          "indexed": true,
          "internalType": "address",
          "name": "owner",
          "type": "address"
        },
        {
          "indexed": true,
          "internalType": "address",
          "name": "operator",
          "type": "address"
        },
        {
          "indexed": false,
          "internalType": "bool",
          "name": "approved",
          "type": "bool"
        }
      ],
      "name": "ApprovalForAll",
      "type": "event"
    },
    {
      "anonymous": false,
      "inputs": [
        {
          "indexed": true,
          "internalType": "address",
          "name": "previousOwner",
          "type": "address"
        },
        {
          "indexed": true,
          "internalType": "address",
          "name": "newOwner",
          "type": "address"
        }
      ],
      "name": "OwnershipTransferred",
      "type": "event"
    },
    {
      "anonymous": false,
      "inputs": [
        {
          "indexed": true,
          "internalType": "address",
          "name": "from",
          "type": "address"
        },
        {
          "indexed": true,
          "internalType": "address",
          "name": "to",
          "type": "address"
        },
        {
          "indexed": true,
          "internalType": "uint256",
          "name": "tokenId",
          "type": "uint256"
        }
      ],
      "name": "Transfer",
      "type": "event"
    },
    {
      "inputs": [
        {
          "internalType": "address",
          "name": "to",
          "type": "address"
        },
        {
          "internalType": "uint256",
          "name": "tokenId",
          "type": "uint256"
        }
      ],
      "name": "approve",
      "outputs": [],
      "stateMutability": "nonpayable",
      "type": "function"
    },
    {
      "inputs": [
        {
          "internalType": "address",
          "name": "owner",
          "type": "address"
        }
      ],
      "name": "balanceOf",
      "outputs": [
        {
          "internalType": "uint256",
          "name": "",
          "type": "uint256"
        }
      ],
      "stateMutability": "view",
      "type": "function"
    },
    {
      "inputs": [
        {
          "internalType": "uint256",
          "name": "tokenId",
          "type": "uint256"
        }
      ],
      "name": "getApproved",
      "outputs": [
        {
          "internalType": "address",
          "name": "",
          "type": "address"
        }
      ],
      "stateMutability": "view",
      "type": "function"
    },
    {
      "inputs": [
        {
          "internalType": "address",
          "name": "owner",
          "type": "address"
        },
        {
          "internalType": "address",
          "name": "operator",
          "type": "address"
        }
      ],
      "name": "isApprovedForAll",
      "outputs": [
        {
          "internalType": "bool",
          "name": "",
          "type": "bool"
        }
      ],
      "stateMutability": "view",
      "type": "function"
    },
    {
      "inputs": [
        {
          "internalType": "address",
          "name": "recipient",
          "type": "address"
        },
        {
          "internalType": "string",
          "name": "tokenURI",
          "type": "string"
        },
        {
          "internalType": "bytes",
          "name": "proof",
          "type": "bytes"
        }
      ],
      "name": "mintSudokuNFT",
      "outputs": [
        {
          "internalType": "uint256",
          "name": "",
          "type": "uint256"
        }
      ],
      "stateMutability": "nonpayable",
      "type": "function"
    },
    {
      "inputs": [],
      "name": "name",
      "outputs": [
        {
          "internalType": "string",
          "name": "",
          "type": "string"
        }
      ],
      "stateMutability": "view",
      "type": "function"
    },
    {
      "inputs": [],
      "name": "owner",
      "outputs": [
        {
          "internalType": "address",
          "name": "",
          "type": "address"
        }
      ],
      "stateMutability": "view",
      "type": "function"
    },
    {
      "inputs": [
        {
          "internalType": "uint256",
          "name": "tokenId",
          "type": "uint256"
        }
      ],
      "name": "ownerOf",
      "outputs": [
        {
          "internalType": "address",
          "name": "",
          "type": "address"
        }
      ],
      "stateMutability": "view",
      "type": "function"
    },
    {
      "inputs": [],
      "name": "renounceOwnership",
      "outputs": [],
      "stateMutability": "nonpayable",
      "type": "function"
    },
    {
      "inputs": [
        {
          "internalType": "address",
          "name": "from",
          "type": "address"
        },
        {
          "internalType": "address",
          "name": "to",
          "type": "address"
        },
        {
          "internalType": "uint256",
          "name": "tokenId",
          "type": "uint256"
        }
      ],
      "name": "safeTransferFrom",
      "outputs": [],
      "stateMutability": "nonpayable",
      "type": "function"
    },
    {
      "inputs": [
        {
          "internalType": "address",
          "name": "from",
          "type": "address"
        },
        {
          "internalType": "address",
          "name": "to",
          "type": "address"
        },
        {
          "internalType": "uint256",
          "name": "tokenId",
          "type": "uint256"
        },
        {
          "internalType": "bytes",
          "name": "data",
          "type": "bytes"
        }
      ],
      "name": "safeTransferFrom",
      "outputs": [],
      "stateMutability": "nonpayable",
      "type": "function"
    },
    {
      "inputs": [
        {
          "internalType": "address",
          "name": "operator",
          "type": "address"
        },
        {
          "internalType": "bool",
          "name": "approved",
          "type": "bool"
        }
      ],
      "name": "setApprovalForAll",
      "outputs": [],
      "stateMutability": "nonpayable",
      "type": "function"
    },
    {
      "inputs": [
        {
          "internalType": "bytes4",
          "name": "interfaceId",
          "type": "bytes4"
        }
      ],
      "name": "supportsInterface",
      "outputs": [
        {
          "internalType": "bool",
          "name": "",
          "type": "bool"
        }
      ],
      "stateMutability": "view",
      "type": "function"
    },
    {
      "inputs": [],
      "name": "symbol",
      "outputs": [
        {
          "internalType": "string",
          "name": "",
          "type": "string"
        }
      ],
      "stateMutability": "view",
      "type": "function"
    },
    {
      "inputs": [
        {
          "internalType": "uint256",
          "name": "",
          "type": "uint256"
        }
      ],
      "name": "tokenType",
      "outputs": [
        {
          "internalType": "enum ZK_NFT.Game",
          "name": "",
          "type": "uint8"
        }
      ],
      "stateMutability": "view",
      "type": "function"
    },
    {
      "inputs": [
        {
          "internalType": "uint256",
          "name": "tokenId",
          "type": "uint256"
        }
      ],
      "name": "tokenURI",
      "outputs": [
        {
          "internalType": "string",
          "name": "",
          "type": "string"
        }
      ],
      "stateMutability": "view",
      "type": "function"
    },
    {
      "inputs": [
        {
          "internalType": "address",
          "name": "from",
          "type": "address"
        },
        {
          "internalType": "address",
          "name": "to",
          "type": "address"
        },
        {
          "internalType": "uint256",
          "name": "tokenId",
          "type": "uint256"
        }
      ],
      "name": "transferFrom",
      "outputs": [],
      "stateMutability": "nonpayable",
      "type": "function"
    },
    {
      "inputs": [
        {
          "internalType": "address",
          "name": "newOwner",
          "type": "address"
        }
      ],
      "name": "transferOwnership",
      "outputs": [],
      "stateMutability": "nonpayable",
      "type": "function"
    }
  ],
  "bytecode": "0x60806040523480156200001157600080fd5b5060405162001f5938038062001f598339810160408190526200003491620001ca565b6040805180820182526006808252651692d7d3919560d21b602080840182815285518087019096529285528401528151919291620000759160009162000124565b5080516200008b90600190602084019062000124565b505050620000a8620000a2620000ce60201b60201c565b620000d2565b600980546001600160a01b0319166001600160a01b039290921691909117905562000239565b3390565b600780546001600160a01b038381166001600160a01b0319831681179093556040519116919082907f8be0079c531659141344cd1fd0a4f28419497f9722a3daafe3b4186f6b6457e090600090a35050565b8280546200013290620001fc565b90600052602060002090601f016020900481019282620001565760008555620001a1565b82601f106200017157805160ff1916838001178555620001a1565b82800160010185558215620001a1579182015b82811115620001a157825182559160200191906001019062000184565b50620001af929150620001b3565b5090565b5b80821115620001af5760008155600101620001b4565b600060208284031215620001dd57600080fd5b81516001600160a01b0381168114620001f557600080fd5b9392505050565b600181811c908216806200021157607f821691505b602082108114156200023357634e487b7160e01b600052602260045260246000fd5b50919050565b611d1080620002496000396000f3fe608060405234801561001057600080fd5b50600436106101365760003560e01c80638da5cb5b116100b2578063b88d4fde11610081578063e6c3b1f611610066578063e6c3b1f61461027f578063e985e9c5146102af578063f2fde38b146102eb57600080fd5b8063b88d4fde14610259578063c87b56dd1461026c57600080fd5b80638da5cb5b1461021a57806395d89b411461022b5780639706211714610233578063a22cb4651461024657600080fd5b806323b872dd116101095780636352211e116100ee5780636352211e146101de57806370a08231146101f1578063715018a61461021257600080fd5b806323b872dd146101b857806342842e0e146101cb57600080fd5b806301ffc9a71461013b57806306fdde0314610163578063081812fc14610178578063095ea7b3146101a3575b600080fd5b61014e6101493660046117e1565b6102fe565b60405190151581526020015b60405180910390f35b61016b6103e3565b60405161015a9190611856565b61018b610186366004611869565b610475565b6040516001600160a01b03909116815260200161015a565b6101b66101b136600461189e565b61049c565b005b6101b66101c63660046118c8565b6105d3565b6101b66101d93660046118c8565b61065a565b61018b6101ec366004611869565b610675565b6102046101ff366004611904565b6106da565b60405190815260200161015a565b6101b6610774565b6007546001600160a01b031661018b565b61016b610788565b6102046102413660046119c4565b610797565b6101b6610254366004611a8b565b6108de565b6101b6610267366004611ac2565b6108ed565b61016b61027a366004611869565b61097b565b6102a261028d366004611869565b600b6020526000908152604090205460ff1681565b60405161015a9190611b3e565b61014e6102bd366004611b7f565b6001600160a01b03918216600090815260056020908152604080832093909416825291909152205460ff1690565b6101b66102f9366004611904565b610a84565b60007fffffffff0000000000000000000000000000000000000000000000000000000082167f80ac58cd00000000000000000000000000000000000000000000000000000000148061039157507fffffffff0000000000000000000000000000000000000000000000000000000082167f5b5e139f00000000000000000000000000000000000000000000000000000000145b806103dd57507f01ffc9a7000000000000000000000000000000000000000000000000000000007fffffffff000000000000000000000000000000000000000000000000000000008316145b92915050565b6060600080546103f290611bb2565b80601f016020809104026020016040519081016040528092919081815260200182805461041e90611bb2565b801561046b5780601f106104405761010080835404028352916020019161046b565b820191906000526020600020905b81548152906001019060200180831161044e57829003601f168201915b5050505050905090565b600061048082610b14565b506000908152600460205260409020546001600160a01b031690565b60006104a782610675565b9050806001600160a01b0316836001600160a01b031614156105365760405162461bcd60e51b815260206004820152602160248201527f4552433732313a20617070726f76616c20746f2063757272656e74206f776e6560448201527f720000000000000000000000000000000000000000000000000000000000000060648201526084015b60405180910390fd5b336001600160a01b0382161480610552575061055281336102bd565b6105c45760405162461bcd60e51b815260206004820152603d60248201527f4552433732313a20617070726f76652063616c6c6572206973206e6f7420746f60448201527f6b656e206f776e6572206f7220617070726f76656420666f7220616c6c000000606482015260840161052d565b6105ce8383610b78565b505050565b6105dd3382610bfe565b61064f5760405162461bcd60e51b815260206004820152602d60248201527f4552433732313a2063616c6c6572206973206e6f7420746f6b656e206f776e6560448201527f72206f7220617070726f76656400000000000000000000000000000000000000606482015260840161052d565b6105ce838383610c7c565b6105ce838383604051806020016040528060008152506108ed565b6000818152600260205260408120546001600160a01b0316806103dd5760405162461bcd60e51b815260206004820152601860248201527f4552433732313a20696e76616c696420746f6b656e2049440000000000000000604482015260640161052d565b60006001600160a01b0382166107585760405162461bcd60e51b815260206004820152602960248201527f4552433732313a2061646472657373207a65726f206973206e6f74206120766160448201527f6c6964206f776e65720000000000000000000000000000000000000000000000606482015260840161052d565b506001600160a01b031660009081526003602052604090205490565b61077c610edb565b6107866000610f35565b565b6060600180546103f290611bb2565b6009546040517f8e760afe0000000000000000000000000000000000000000000000000000000081526000916001600160a01b031690638e760afe906107e39086908690600401611c06565b602060405180830381865afa158015610800573d6000803e3d6000fd5b505050506040513d601f19601f820116820180604052508101906108249190611c35565b6108705760405162461bcd60e51b815260206004820152600e60248201527f496e76616c69642050726f6f6621000000000000000000000000000000000000604482015260640161052d565b61087e600880546001019055565b600061088960085490565b90506108958682610f9f565b61089f8186611142565b6000818152600b6020526040902080547fffffffffffffffffffffffffffffffffffffffffffffffffffffffffffffff0016905590505b949350505050565b6108e93383836111eb565b5050565b6108f73383610bfe565b6109695760405162461bcd60e51b815260206004820152602d60248201527f4552433732313a2063616c6c6572206973206e6f7420746f6b656e206f776e6560448201527f72206f7220617070726f76656400000000000000000000000000000000000000606482015260840161052d565b610975848484846112d8565b50505050565b606061098682610b14565b6000828152600660205260408120805461099f90611bb2565b80601f01602080910402602001604051908101604052809291908181526020018280546109cb90611bb2565b8015610a185780601f106109ed57610100808354040283529160200191610a18565b820191906000526020600020905b8154815290600101906020018083116109fb57829003601f168201915b505050505090506000610a3660408051602081019091526000815290565b9050805160001415610a49575092915050565b815115610a7b578082604051602001610a63929190611c52565b60405160208183030381529060405292505050919050565b6108d684611361565b610a8c610edb565b6001600160a01b038116610b085760405162461bcd60e51b815260206004820152602660248201527f4f776e61626c653a206e6577206f776e657220697320746865207a65726f206160448201527f6464726573730000000000000000000000000000000000000000000000000000606482015260840161052d565b610b1181610f35565b50565b6000818152600260205260409020546001600160a01b0316610b115760405162461bcd60e51b815260206004820152601860248201527f4552433732313a20696e76616c696420746f6b656e2049440000000000000000604482015260640161052d565b600081815260046020526040902080547fffffffffffffffffffffffff0000000000000000000000000000000000000000166001600160a01b0384169081179091558190610bc582610675565b6001600160a01b03167f8c5be1e5ebec7d5bd14f71427d1e84f3dd0314c0f7b2291e5b200ac8c7c3b92560405160405180910390a45050565b600080610c0a83610675565b9050806001600160a01b0316846001600160a01b03161480610c5157506001600160a01b0380821660009081526005602090815260408083209388168352929052205460ff165b806108d65750836001600160a01b0316610c6a84610475565b6001600160a01b031614949350505050565b826001600160a01b0316610c8f82610675565b6001600160a01b031614610d0b5760405162461bcd60e51b815260206004820152602560248201527f4552433732313a207472616e736665722066726f6d20696e636f72726563742060448201527f6f776e6572000000000000000000000000000000000000000000000000000000606482015260840161052d565b6001600160a01b038216610d865760405162461bcd60e51b8152602060048201526024808201527f4552433732313a207472616e7366657220746f20746865207a65726f2061646460448201527f7265737300000000000000000000000000000000000000000000000000000000606482015260840161052d565b826001600160a01b0316610d9982610675565b6001600160a01b031614610e155760405162461bcd60e51b815260206004820152602560248201527f4552433732313a207472616e736665722066726f6d20696e636f72726563742060448201527f6f776e6572000000000000000000000000000000000000000000000000000000606482015260840161052d565b600081815260046020908152604080832080547fffffffffffffffffffffffff00000000000000000000000000000000000000009081169091556001600160a01b038781168086526003855283862080547fffffffffffffffffffffffffffffffffffffffffffffffffffffffffffffffff01905590871680865283862080546001019055868652600290945282852080549092168417909155905184937fddf252ad1be2c89b69c2b068fc378daa952ba7f163c4a11628f55a4df523b3ef91a4505050565b6007546001600160a01b031633146107865760405162461bcd60e51b815260206004820181905260248201527f4f776e61626c653a2063616c6c6572206973206e6f7420746865206f776e6572604482015260640161052d565b600780546001600160a01b038381167fffffffffffffffffffffffff0000000000000000000000000000000000000000831681179093556040519116919082907f8be0079c531659141344cd1fd0a4f28419497f9722a3daafe3b4186f6b6457e090600090a35050565b6001600160a01b038216610ff55760405162461bcd60e51b815260206004820181905260248201527f4552433732313a206d696e7420746f20746865207a65726f2061646472657373604482015260640161052d565b6000818152600260205260409020546001600160a01b03161561105a5760405162461bcd60e51b815260206004820152601c60248201527f4552433732313a20746f6b656e20616c7265616479206d696e74656400000000604482015260640161052d565b6000818152600260205260409020546001600160a01b0316156110bf5760405162461bcd60e51b815260206004820152601c60248201527f4552433732313a20746f6b656e20616c7265616479206d696e74656400000000604482015260640161052d565b6001600160a01b038216600081815260036020908152604080832080546001019055848352600290915280822080547fffffffffffffffffffffffff0000000000000000000000000000000000000000168417905551839291907fddf252ad1be2c89b69c2b068fc378daa952ba7f163c4a11628f55a4df523b3ef908290a45050565b6000828152600260205260409020546001600160a01b03166111cc5760405162461bcd60e51b815260206004820152602e60248201527f45524337323155524953746f726167653a2055524920736574206f66206e6f6e60448201527f6578697374656e7420746f6b656e000000000000000000000000000000000000606482015260840161052d565b600082815260066020908152604090912082516105ce9284019061171a565b816001600160a01b0316836001600160a01b0316141561124d5760405162461bcd60e51b815260206004820152601960248201527f4552433732313a20617070726f766520746f2063616c6c657200000000000000604482015260640161052d565b6001600160a01b0383811660008181526005602090815260408083209487168084529482529182902080547fffffffffffffffffffffffffffffffffffffffffffffffffffffffffffffff001686151590811790915591519182527f17307eab39ab6107e8899845ad3d59bd9653f200f220920489ca2b5937696c31910160405180910390a3505050565b6112e3848484610c7c565b6112ef848484846113d5565b6109755760405162461bcd60e51b815260206004820152603260248201527f4552433732313a207472616e7366657220746f206e6f6e20455243373231526560448201527f63656976657220696d706c656d656e7465720000000000000000000000000000606482015260840161052d565b606061136c82610b14565b600061138360408051602081019091526000815290565b905060008151116113a357604051806020016040528060008152506113ce565b806113ad84611570565b6040516020016113be929190611c52565b6040516020818303038152906040525b9392505050565b60006001600160a01b0384163b15611568576040517f150b7a020000000000000000000000000000000000000000000000000000000081526001600160a01b0385169063150b7a0290611432903390899088908890600401611c81565b6020604051808303816000875af192505050801561146d575060408051601f3d908101601f1916820190925261146a91810190611cbd565b60015b61151d573d80801561149b576040519150601f19603f3d011682016040523d82523d6000602084013e6114a0565b606091505b5080516115155760405162461bcd60e51b815260206004820152603260248201527f4552433732313a207472616e7366657220746f206e6f6e20455243373231526560448201527f63656976657220696d706c656d656e7465720000000000000000000000000000606482015260840161052d565b805181602001fd5b7fffffffff00000000000000000000000000000000000000000000000000000000167f150b7a02000000000000000000000000000000000000000000000000000000001490506108d6565b5060016108d6565b6060600061157d83611638565b600101905060008167ffffffffffffffff81111561159d5761159d61191f565b6040519080825280601f01601f1916602001820160405280156115c7576020820181803683370190505b5090508181016020015b7fffffffffffffffffffffffffffffffffffffffffffffffffffffffffffffffff017f3031323334353637383961626364656600000000000000000000000000000000600a86061a8153600a850494508461162b57611630565b6115d1565b509392505050565b6000807a184f03e93ff9f4daa797ed6e38ed64bf6a1f0100000000000000008310611681577a184f03e93ff9f4daa797ed6e38ed64bf6a1f010000000000000000830492506040015b6d04ee2d6d415b85acef810000000083106116ad576d04ee2d6d415b85acef8100000000830492506020015b662386f26fc1000083106116cb57662386f26fc10000830492506010015b6305f5e10083106116e3576305f5e100830492506008015b61271083106116f757612710830492506004015b60648310611709576064830492506002015b600a83106103dd5760010192915050565b82805461172690611bb2565b90600052602060002090601f016020900481019282611748576000855561178e565b82601f1061176157805160ff191683800117855561178e565b8280016001018555821561178e579182015b8281111561178e578251825591602001919060010190611773565b5061179a92915061179e565b5090565b5b8082111561179a576000815560010161179f565b7fffffffff0000000000000000000000000000000000000000000000000000000081168114610b1157600080fd5b6000602082840312156117f357600080fd5b81356113ce816117b3565b60005b83811015611819578181015183820152602001611801565b838111156109755750506000910152565b600081518084526118428160208601602086016117fe565b601f01601f19169290920160200192915050565b6020815260006113ce602083018461182a565b60006020828403121561187b57600080fd5b5035919050565b80356001600160a01b038116811461189957600080fd5b919050565b600080604083850312156118b157600080fd5b6118ba83611882565b946020939093013593505050565b6000806000606084860312156118dd57600080fd5b6118e684611882565b92506118f460208501611882565b9150604084013590509250925092565b60006020828403121561191657600080fd5b6113ce82611882565b7f4e487b7100000000000000000000000000000000000000000000000000000000600052604160045260246000fd5b600067ffffffffffffffff808411156119695761196961191f565b604051601f8501601f19908116603f011681019082821181831017156119915761199161191f565b816040528093508581528686860111156119aa57600080fd5b858560208301376000602087830101525050509392505050565b600080600080606085870312156119da57600080fd5b6119e385611882565b9350602085013567ffffffffffffffff80821115611a0057600080fd5b818701915087601f830112611a1457600080fd5b611a238883356020850161194e565b94506040870135915080821115611a3957600080fd5b818701915087601f830112611a4d57600080fd5b813581811115611a5c57600080fd5b886020828501011115611a6e57600080fd5b95989497505060200194505050565b8015158114610b1157600080fd5b60008060408385031215611a9e57600080fd5b611aa783611882565b91506020830135611ab781611a7d565b809150509250929050565b60008060008060808587031215611ad857600080fd5b611ae185611882565b9350611aef60208601611882565b925060408501359150606085013567ffffffffffffffff811115611b1257600080fd5b8501601f81018713611b2357600080fd5b611b328782356020840161194e565b91505092959194509250565b6020810160038310611b79577f4e487b7100000000000000000000000000000000000000000000000000000000600052602160045260246000fd5b91905290565b60008060408385031215611b9257600080fd5b611b9b83611882565b9150611ba960208401611882565b90509250929050565b600181811c90821680611bc657607f821691505b60208210811415611c00577f4e487b7100000000000000000000000000000000000000000000000000000000600052602260045260246000fd5b50919050565b60208152816020820152818360408301376000818301604090810191909152601f909201601f19160101919050565b600060208284031215611c4757600080fd5b81516113ce81611a7d565b60008351611c648184602088016117fe565b835190830190611c788183602088016117fe565b01949350505050565b60006001600160a01b03808716835280861660208401525083604083015260806060830152611cb3608083018461182a565b9695505050505050565b600060208284031215611ccf57600080fd5b81516113ce816117b356fea2646970667358221220ac7b73bd2649fd1ba911b342054f5202d68f6da0948cbfd4c24b699f64f520ba64736f6c634300080a0033",
  "linkReferences": {},
  "deployedLinkReferences": {}
}